{
  "contractName": "Notary",
  "abi": [
    {
      "anonymous": false,
      "inputs": [
        {
          "indexed": false,
          "internalType": "bytes32",
          "name": "_checksum",
          "type": "bytes32"
        },
        {
          "indexed": false,
          "internalType": "string",
          "name": "_filename",
          "type": "string"
        },
        {
          "indexed": true,
          "internalType": "address",
          "name": "_setBy",
          "type": "address"
        }
      ],
      "name": "NewEntry",
      "type": "event"
    },
    {
      "constant": true,
      "inputs": [
        {
          "internalType": "bytes32",
          "name": "",
          "type": "bytes32"
        }
      ],
      "name": "myMapping",
      "outputs": [
        {
          "internalType": "string",
          "name": "fileName",
          "type": "string"
        },
        {
          "internalType": "uint256",
          "name": "timestamp",
          "type": "uint256"
        },
        {
          "internalType": "bytes32",
          "name": "checkSum",
          "type": "bytes32"
        },
        {
          "internalType": "string",
          "name": "comments",
          "type": "string"
        },
        {
          "internalType": "bool",
          "name": "isSet",
          "type": "bool"
        },
        {
          "internalType": "address",
          "name": "setBy",
          "type": "address"
        }
      ],
      "payable": false,
      "stateMutability": "view",
      "type": "function"
    },
    {
      "constant": false,
      "inputs": [
        {
          "internalType": "bytes32",
          "name": "_checksum",
          "type": "bytes32"
        },
        {
          "internalType": "string",
          "name": "_fileName",
          "type": "string"
        },
        {
          "internalType": "string",
          "name": "_comments",
          "type": "string"
        }
      ],
      "name": "addEntry",
      "outputs": [],
      "payable": false,
      "stateMutability": "nonpayable",
      "type": "function"
    },
    {
      "constant": true,
      "inputs": [
        {
          "internalType": "bytes32",
          "name": "_checksum",
          "type": "bytes32"
        }
      ],
      "name": "entrySet",
      "outputs": [
        {
          "internalType": "string",
          "name": "",
          "type": "string"
        },
        {
          "internalType": "uint256",
          "name": "",
          "type": "uint256"
        },
        {
          "internalType": "string",
          "name": "",
          "type": "string"
        },
        {
          "internalType": "address",
          "name": "",
          "type": "address"
        }
      ],
      "payable": false,
      "stateMutability": "view",
      "type": "function"
    }
  ],
  "bytecode": "0x608060405234801561001057600080fd5b50610a8f806100206000396000f3fe608060405234801561001057600080fd5b50600436106100415760003560e01c80630414be80146100465780637f58951914610193578063bba8b630146102ef575b600080fd5b6100726004803603602081101561005c57600080fd5b810190808035906020019092919050505061044e565b6040518080602001858152602001806020018473ffffffffffffffffffffffffffffffffffffffff1673ffffffffffffffffffffffffffffffffffffffff168152602001838103835287818151815260200191508051906020019080838360005b838110156100ee5780820151818401526020810190506100d3565b50505050905090810190601f16801561011b5780820380516001836020036101000a031916815260200191505b50838103825285818151815260200191508051906020019080838360005b83811015610154578082015181840152602081019050610139565b50505050905090810190601f1680156101815780820380516001836020036101000a031916815260200191505b50965050505050505060405180910390f35b6102ed600480360360608110156101a957600080fd5b8101908080359060200190929190803590602001906401000000008111156101d057600080fd5b8201836020820111156101e257600080fd5b8035906020019184600183028401116401000000008311171561020457600080fd5b91908080601f016020809104026020016040519081016040528093929190818152602001838380828437600081840152601f19601f8201169050808301925050505050505091929192908035906020019064010000000081111561026757600080fd5b82018360208201111561027957600080fd5b8035906020019184600183028401116401000000008311171561029b57600080fd5b91908080601f016020809104026020016040519081016040528093929190818152602001838380828437600081840152601f19601f82011690508083019250505050505050919291929050505061063f565b005b61031b6004803603602081101561030557600080fd5b810190808035906020019092919050505061081c565b604051808060200187815260200186815260200180602001851515151581526020018473ffffffffffffffffffffffffffffffffffffffff1673ffffffffffffffffffffffffffffffffffffffff168152602001838103835289818151815260200191508051906020019080838360005b838110156103a757808201518184015260208101905061038c565b50505050905090810190601f1680156103d45780820380516001836020036101000a031916815260200191505b50838103825286818151815260200191508051906020019080838360005b8381101561040d5780820151818401526020810190506103f2565b50505050905090810190601f16801561043a5780820380516001836020036101000a031916815260200191505b509850505050505050505060405180910390f35b606060006060600080600086815260200190815260200160002060040160009054906101000a900460ff1661048257600080fd5b6000808681526020019081526020016000206000016000808781526020019081526020016000206001015460008088815260200190815260200160002060030160008089815260200190815260200160002060040160019054906101000a900473ffffffffffffffffffffffffffffffffffffffff16838054600181600116156101000203166002900480601f01602080910402602001604051908101604052809291908181526020018280546001816001161561010002031660029004801561058d5780601f106105625761010080835404028352916020019161058d565b820191906000526020600020905b81548152906001019060200180831161057057829003601f168201915b50505050509350818054600181600116156101000203166002900480601f0160208091040260200160405190810160405280929190818152602001828054600181600116156101000203166002900480156106295780601f106105fe57610100808354040283529160200191610629565b820191906000526020600020905b81548152906001019060200180831161060c57829003601f168201915b5050505050915093509350935093509193509193565b60008084815260200190815260200160002060040160009054906101000a900460ff161561066c57600080fd5b600160008085815260200190815260200160002060040160006101000a81548160ff0219169083151502179055508160008085815260200190815260200160002060000190805190602001906106c39291906109b5565b5042600080858152602001908152602001600020600101819055508060008085815260200190815260200160002060030190805190602001906107079291906109b5565b503360008085815260200190815260200160002060040160016101000a81548173ffffffffffffffffffffffffffffffffffffffff021916908373ffffffffffffffffffffffffffffffffffffffff1602179055503373ffffffffffffffffffffffffffffffffffffffff167f8894500778b4a5e556f0cae0842471eedc99b8a9df64046634b8a3bb3ae4210284846040518083815260200180602001828103825283818151815260200191508051906020019080838360005b838110156107dc5780820151818401526020810190506107c1565b50505050905090810190601f1680156108095780820380516001836020036101000a031916815260200191505b50935050505060405180910390a2505050565b6000602052806000526040600020600091509050806000018054600181600116156101000203166002900480601f0160208091040260200160405190810160405280929190818152602001828054600181600116156101000203166002900480156108c85780601f1061089d576101008083540402835291602001916108c8565b820191906000526020600020905b8154815290600101906020018083116108ab57829003601f168201915b505050505090806001015490806002015490806003018054600181600116156101000203166002900480601f0160208091040260200160405190810160405280929190818152602001828054600181600116156101000203166002900480156109725780601f1061094757610100808354040283529160200191610972565b820191906000526020600020905b81548152906001019060200180831161095557829003601f168201915b5050505050908060040160009054906101000a900460ff16908060040160019054906101000a900473ffffffffffffffffffffffffffffffffffffffff16905086565b828054600181600116156101000203166002900490600052602060002090601f016020900481019282601f106109f657805160ff1916838001178555610a24565b82800160010185558215610a24579182015b82811115610a23578251825591602001919060010190610a08565b5b509050610a319190610a35565b5090565b610a5791905b80821115610a53576000816000905550600101610a3b565b5090565b9056fea265627a7a7231582079567301d718518cbb592c74600aa14846626e8ae86ca770cd8c5bc12877828364736f6c63430005100032",
  "source": "pragma solidity ^0.5.0;\n\ncontract Notary {\n\n    struct MyNotaryEntry {\n        string fileName;\n        uint timestamp;\n        bytes32 checkSum;\n        string comments;\n        bool isSet;\n        address setBy;\n    }\n\n    mapping (bytes32 => MyNotaryEntry) public myMapping;\n\n    event NewEntry(bytes32 _checksum, string _filename, address indexed _setBy);\n\n    /**\n     * Example: 0x193C167E2B336B32356F17009C923C4CD33AC8E3F62BAD1384E8A049F77FD295, \"test\", \"test\"\n     * */\n    function addEntry(bytes32 _checksum, string memory _fileName, string memory _comments) public {\n        require(!myMapping[_checksum].isSet);\n\n        myMapping[_checksum].isSet = true;\n        myMapping[_checksum].fileName = _fileName;\n        myMapping[_checksum].timestamp = now;\n        myMapping[_checksum].comments = _comments;\n        myMapping[_checksum].setBy = msg.sender;\n\n        emit NewEntry(_checksum, _fileName, msg.sender);\n    }\n\n\n    function entrySet(bytes32 _checksum) public view returns(string memory, uint, string memory, address) {\n        require(myMapping[_checksum].isSet);\n        return (myMapping[_checksum].fileName, myMapping[_checksum].timestamp, myMapping[_checksum].comments, myMapping[_checksum].setBy);\n    }\n\n\n}\n",
  "sourcePath": "/home/salman/Development/fiverr/authentication_5/authentication/client/contracts/Notary.sol",
  "compiler": {
    "name": "solc",
    "version": "0.5.16+commit.9c3226ce.Emscripten.clang"
  },
  "schemaVersion": "3.2.5",
  "updatedAt": "2021-04-22T08:57:26.173Z",
  "networkType": "ethereum",
  "devdoc": {
    "methods": {}
  },
  "userdoc": {
    "methods": {
      "addEntry(bytes32,string,string)": {
        "notice": "Example: 0x193C167E2B336B32356F17009C923C4CD33AC8E3F62BAD1384E8A049F77FD295, \"test\", \"test\""
      }
    }
  }
}